:020000040000FA
:100000000C94B0000C94DA000C94DA000C94DA0032
:100010000C94DA000C94DA000C94DA000C94DA00F8
:100020000C94DA000C94DA000C94DA000C94DA00E8
:100030000C94DA000C94DA000C94DA000C94DA00D8
:100040000C9481060C94DA000C94F5060C94CB0603
:100050000C94DA000C94DA000C94DA000C94DA00B8
:100060000C94DA000C94DA000C94DA000C94DA00A8
:100070000C94DA000C94DA000C94DA000C94DA0098
:100080000C94DA000C94DA000C94DA0000003900C9
:100090003600330030002100200063000000000A19
:1000A0000B0C000000000000010405060000000029
:1000B0000000000000000000000000000000000040
:1000C0000000000000000000000000000000000030
:1000D0000000003B0038003500320023006200655C
:1000E0000000003A00370034003100220061006453
:1000F00000050505050505050502020202020202CA
:1001000002070704040404040404040707030303A8
:1001100003030303030701010101010101010606B5
:1001200006060606060601020408102040800102A9
:1001300004081020408008100102040810204080AC
:1001400001020102040810204080048040201008B1
:100150000402010102040810204080002B074D0D0D
:1001600011241FBECFEFD0E1DEBFCDBF23E0AAE157
:10017000B2E001C01D92AF34B207E1F712E0A0E097
:10018000B1E0E2E3F4E200E00BBF02C007900D92A1
:10019000AA31B107D9F710E0CFEAD0E004C0219727
:1001A000FE010E94CD0FCE3AD107C9F70E94DB07AE
:1001B0000C940C120C94000090E0FC01EA5DFE4FE0
:1001C00024918F509F4FFC018491882399F090E0F7
:1001D000880F991FFC01EF51FF4FA591B491FC01CD
:1001E000EF52FF4F859194918FB7F894EC91E22BE9
:1001F000EC938FBF0895811114C010923F031092A9
:100200003E0310924103109240031092420387E094
:10021000EEE3F3E0A6E0B3E001900D928A95E1F7FA
:10022000089520914303821791F391E0281708F075
:1002300090E09093440380934303823309F461C0B8
:1002400008F5843109F44BC078F48A30D9F18C3345
:1002500009F466C008F080C08E3109F44FC008F080
:1002600074C0843191F641C08E3109F441C08832A6
:1002700071F789E790E0909341038093400384ED08
:1002800090E028C0803509F44EC070F48C3309F436
:1002900041C08634E1F685E890E090934103809375
:1002A00040038EE091E016C08A3509F445C08436DB
:1002B00071F681EA90E090934103809340038BE9CB
:1002C00091E008C08FE390E0909341038093400356
:1002D00084E690E090933F0380933E0396CF87E5BA
:1002E00090E0909341038093400387E890E0F2CF41
:1002F00080E790E0909341038093400387EB90E088
:10030000E9CF8CE790E0909341038093400385EE22
:1003100090E0E0CF8FE790E090934103809340031B
:1003200086EF90E0D7CF8DE890E0909341038093E3
:10033000400387E291E0CECF87E990E090934103BC
:10034000809340038EE591E0C5CF883209F497CFC2
:10035000823309F05ACFDBCF803559F320F486344D
:1003600009F053CF9ECF8A3569F3843609F04DCF1B
:10037000A6CF81508C3088F5E82FF0E0EE53FE4F89
:100380000C94CD0FEA01EA01ED01CE01D201D501B5
:10039000D801ED01ED01DC01E201E6018FB58F77B7
:1003A0008FBD08958FB58F7DFBCF8FB5877FF8CF39
:1003B00085B58F7D85BD089580918B008F77809363
:1003C0008B00089580918B008F7DF9CF80918B00F9
:1003D000877FF5CF83B78F7D83BF0895CF93DF935A
:1003E000E0EAF0E08491EAE2F1E0D491E5EFF0E0B8
:1003F000C491CC23A1F081110E94B901EC2FF0E04F
:10040000EE0FFF1FE457FF4FA591B491EC91ED2340
:1004100081E090E009F480E0DF91CF91089580E0E1
:1004200090E0FACF1F93CF93DF93282F30E0F901AC
:10043000E456FF4F8491F901EA5DFE4FD491F90132
:10044000EF50FF4FC491CC23A9F0162F81110E94C9
:10045000B901EC2FF0E0EE0FFF1FEF52FF4FA59117
:10046000B4918FB7F894EC91111108C0D095DE23A8
:10047000DC938FBFDF91CF911F910895DE2BF8CFD2
:10048000EF92FF920F931F93CF93DF93E82E00918B
:10049000D402F090D302C8E0D0E010E86E2D6123C2
:1004A0008F2D0E94120261E0802F0E94120260E0F4
:1004B000802F0E9412021695219781F780E0DF912C
:1004C000CF911F910F91FF90EF900895CF93DF93FD
:1004D000EC0160E08091D5020E9412028091D70267
:1004E0008823B9F09091E8028091E9029DB98EB914
:1004F000DFB90000779BFECF8FB1CFB90000779BAB
:10050000FECF8FB161E08091D502DF91CF910C9445
:1005100012028D2F0E9440028C2F0E944002F2CFC7
:10052000E091EA020E2E000CFF0BED52FD4F818D83
:1005300090E090630C9466023FB7F8948091220299
:1005400090912302A0912402B091250222B706B611
:1005500000FE05C02F3F19F00196A11DB11D3FBF40
:10056000BA2FA92F982F8827BC01CD01620F711DCA
:10057000811D911D42E0660F771F881F991F4A95C4
:10058000D1F708952FB7F89460911E0270911F0261
:1005900080912002909121022FBF08950895AF927B
:1005A000BF92CF92DF92EF92FF920F931F93CF9360
:1005B000DF936C017B018B01040F151FEB015E01C2
:1005C000AE18BF08C017D10759F06991D601ED9157
:1005D000FC910190F081E02DC6010995892B79F7F6
:1005E000C501DF91CF911F910F91FF90EF90DF90A8
:1005F000CF90BF90AF900895FC01538D448D252F6F
:1006000030E0842F90E0821B930B541710F0CF96AC
:10061000089501970895FC01918D828D981761F0DE
:10062000A28DAE0FBF2FB11D5D968C91928D9F5FF5
:100630009F73928F90E008958FEF9FEF08950F932F
:100640001F930E94C20260932E0270932F02809328
:1006500030029093310286E292E00E940B0397FFF2
:100660001DC00E94C20200912E0210912F02209103
:10067000300230913102601B710B820B930B0091A1
:100680002A0210912B0220912C0230912D0260172A
:10069000710782079307F8F28FEF9FEF1F910F9179
:1006A0000895FC01918D828D981731F0828DE80FAD
:1006B000F11D858D90E008958FEF9FEF0895FC0167
:1006C000918D228D892F90E0805C9F4F821B910934
:1006D0008F739927089586E292E00E945F0321E0DC
:1006E000892B09F420E0822F0895FC01A48DA80F26
:1006F000B92FB11DA35ABF4F2C91848D90E0019664
:100700008F739927848FA689B7892C93A089B18983
:100710008C91837080648C93938D848D981306C024
:100720000288F389E02D80818F7D80830895EF9288
:10073000FF920F931F93CF93DF93EC0181E0888F9B
:100740009B8D8C8D98131AC0E889F989808185FF6B
:1007500015C09FB7F894EE89FF896083E889F9890D
:1007600080818370806480839FBF81E090E0DF910F
:10077000CF911F910F91FF90EF900895F62E0B8D62
:1007800010E00F5F1F4F0F731127E02E8C8D8E111D
:100790000CC00FB607FCFACFE889F989808185FF84
:1007A000F5CFCE010E947503F1CFEB8DEC0FFD2F3D
:1007B000F11DE35AFF4FF0829FB7F8940B8FEA893F
:1007C000FB8980818062CFCFCF93DF93EC01888D4E
:1007D0008823B9F0AA89BB89E889F9898C9185FDBC
:1007E00003C0808186FD0DC00FB607FCF7CF8C914A
:1007F00085FFF2CF808185FFEDCFCE010E9475038A
:10080000E9CFDF91CF91089580E090E0892B29F026
:100810000E946B0381110E94000080E090E0892B10
:1008200049F080E090E0892B29F00E9400008111BE
:100830000C940000089595B3907F95BB95B38F708D
:10084000892B85BB08951F93CF93DF93EC0118810B
:1008500090E080E00E94880E181729F0612F90E048
:1008600080E00E94900E198181E090E00E94880E45
:10087000181729F0612F81E090E00E94900ECE01C0
:10088000DF91CF911F910895E091CC02F091CD02BC
:10089000EC53FD4F808190E00E941B042FEF89EF05
:1008A00090E0215080409040E1F700C0000080912E
:1008B000CC029091CD0201968430910570F4909312
:1008C000CD028093CC028091D0029091D10201960A
:1008D0009093D1028093D00208951092CD0210928D
:1008E000CC02F1CFE091CE02F091CF02EC53FD4F5C
:1008F000848190E00E941B042FEF89EF90E021504B
:1009000080409040E1F700C000008091CE029091BD
:10091000CF0201968430910570F49093CF028093BA
:10092000CE028091D0029091D10201979093D10292
:100930008093D00208951092CF021092CE02F1CF90
:1009400090E080E00E941B042FEF89EF90E021509F
:1009500080409040E1F700C000000895FC01019044
:100960000020E9F73197AF01481B590BBC0186E223
:1009700092E00C94CF028F929F92AF92BF920F930E
:100980001F93CF93DF93CDB7DEB7A1970FB6F8943F
:10099000DEBF0FBECDBF19A2423008F44AE08E017F
:1009A0000F5D1F4F842E912CB12CA12CA501940119
:1009B0000E94AB0FE62FB901CA01EA30F4F4E05D02
:1009C000D801EE938D01232B242B252B79F790E072
:1009D00080E0109719F0CD010E94AE04A1960FB6E9
:1009E000F894DEBF0FBECDBFDF91CF911F910F9165
:1009F000BF90AF909F908F900895E95CE1CFCF9327
:100A0000DF930E94AE04EC018DE291E00E94AE04FF
:100A10008C0F9D1FDF91CF910895CF93DF93BC0181
:100A200090E080E04AE00E94BB04EC018DE291E09E
:100A30000E94AE048C0F9D1FDF91CF910895FC01A1
:100A400080819181009711F00C947B100895FC0136
:100A5000448155818091490390914A0384179507F9
:100A600080F08091450390914603009751F060819A
:100A700071816115710529F00E94FE1121E0892B19
:100A800009F020E0822F08952091490330914A0314
:100A9000232B39F421E0FC018081882361F020E0E0
:100AA0000AC0BC0180914503909146030E94EE115B
:100AB00021E0892BA1F7822F0895E2E2F3E084E19F
:100AC000DF011D928A95E9F7369A369BFECF94B1E5
:100AD00085B189279827892790933B0380933A0310
:100AE00081939193B3E0E633FB0771F708950E9479
:100AF0005D050E945D050E945D05E6E2F3E080E091
:100B000090E0DC0141915191052E000C660B770BB2
:100B1000840F951FA61FB71F23E0E633F20791F756
:100B20008093360390933703A0933803B09339032F
:100B300023E0B595A795979587952A95D1F79C01C0
:100B400090933D0380933C03813042E0940724F06E
:100B500020E032E0281B390BC901089580910A0377
:100B6000811106C03A9887B18B6187B90C947705DB
:100B700087B18D7E87B987B18D60F7CF0F931F93B3
:100B8000CF93DF93EC0188819981009759F02A81F6
:100B90003B812617370730F081E0DF91CF911F911D
:100BA0000F9108958B016F5F7F4F0E940411009792
:100BB00059F0998388831B830A832C813D81232BE1
:100BC00059F7FC011082E8CF80E0E7CFEF92FF9267
:100BD0000F931F93CF93DF93EC017B018A01BA013E
:100BE0000E94BE0528813981811114C0211531056B
:100BF00019F0C9010E947B10198218821D821C8283
:100C00001B821A82CE01DF91CF911F910F91FF902D
:100C1000EF9008951D830C83B701C9010E94F7115D
:100C2000F1CFFC011182108213821282158214828C
:100C3000FB0101900020E9F73197AF01461B570BEC
:100C40000C94E605CF92DF92EF92FF920F931F93E1
:100C5000CF93DF93EC017B0183E0C82ED12C63306E
:100C6000710520F46B0193E0E92EF12C6FE271E045
:100C7000CE010E9411060091490310914A03C0164B
:100C8000D10640F5E016F10608F48701E09145032E
:100C9000F0914603E00FF11FF08010826091450350
:100CA000709146036C0D7D1D61157105E9F0FB0126
:100CB00001900020E9F73197AF01461B570BCE0199
:100CC0000E94E6058091450390914603080F191F85
:100CD000F801F082CE01DF91CF911F910F91FF902B
:100CE000EF90DF90CF90089588819981009711F05F
:100CF0000E947B10198218821D821C821B821A821C
:100D0000E1CF1F920F920FB60F9211242F933F93B2
:100D10008F939F93AF93BF9380911E0290911F0278
:100D2000A0912002B091210230911D0223E0230FF7
:100D30002D3768F126E8230F0296A11DB11D2093DF
:100D40001D0280931E0290931F02A0932002B09375
:100D500021028091220290912302A0912402B0915D
:100D600025020196A11DB11D8093220290932302BA
:100D7000A0932402B0932502BF91AF919F918F91D0
:100D80003F912F910F900FBE0F901F9018950196D5
:100D9000A11DB11DD4CF1F920F920FB60F92112437
:100DA0000BB60F922F933F934F935F936F937F9365
:100DB0008F939F93AF93BF93EF93FF9386E292E05D
:100DC0000E947503FF91EF91BF91AF919F918F9119
:100DD0007F916F915F914F913F912F910F900BBE3B
:100DE0000F900FBE0F901F9018951F920F920FB685
:100DF0000F9211240BB60F922F938F939F93EF9323
:100E0000FF93E0913602F09137028081E0913C023D
:100E1000F0913D0282FD1DC0908180913F028F5F65
:100E20008F7320914002821741F0E0913F02F0E081
:100E3000EA5DFD4F958F80933F02FF91EF919F9167
:100E40008F912F910F900BBE0F900FBE0F901F90A0
:100E500018958081F2CFE6E2F2E01382128288EEEA
:100E600093E0A0E0B0E084839583A683B7838FE10D
:100E700091E09183808380E990E09587848789E27F
:100E800090E0978786878BE290E0918B808B8AE257
:100E900090E0938B828B85E990E0958B848B8CE23C
:100EA00090E0978B868B118E128E138E148E6FE2CC
:100EB00071E085E493E00E941106E6E0F3E0118220
:100EC0001082138212821482158216821782108673
:100ED0001186128613861486158616861786108A42
:100EE000118A128A138A148A158A168A108E178A12
:100EF000128E118E11AE10AE13AE12AE14AE15AE30
:100F000016AEE3EDF2E09FEF938340E054E264EF2E
:100F100070E04583568367837087118A81E0828BF6
:100F200020E5258B168A23EC32E0348B238B9083CB
:100F30009183128284838187808B1586148617861D
:100F400016868FEF9FE093878287178A108E8DE039
:100F5000E6E0F1E0ACEEB2E001900D928A95E1F7A7
:100F60008DE0E6E0F1E0A9EFB2E001900D928A9504
:100F7000E1F7E4ECF2E08091130190911401A0916B
:100F80001501B091160180839183A283B383809170
:100F9000170190911801A0911901B0911A01848351
:100FA0009583A683B78311861086138612861586CD
:100FB000148616860895CF93DF93CDB7DEB72A97B0
:100FC0000FB6F894DEBF0FBECDBF789483B78C64A4
:100FD00083BF87B7816087BF92E09EBD8EB5816079
:100FE0008EBD8FB581608FBD85B5846085BD85B5AB
:100FF000806485BD80918A00836080938A0080919F
:101000008B00816080938B0087E886B91AB8E091E5
:101010003602F09137029083E0913202F091330270
:101020001082E0913402F09135028FEC80831092AF
:101030003E02E0913A02F0913B0286E08083E0912B
:101040003802F0913902808188698083E09138020A
:10105000F091390280818F7D8083BD9AC5981BBC39
:101060001ABC8FB583608FBD8EB588608EBD8FB57D
:1010700080688FBD8EB584608EBD8EB58C7F8EBD31
:10108000379A86B1887F86B93E9A80E00E94FB003D
:101090008BE28093D5020E94DC0061E08091D50252
:1010A0000E9412020091D8021091D9022091DA0216
:1010B0003091DB0240E052E16AE770E080E0041723
:1010C00015072607370740F4769567955795479596
:1010D0008F5F8630A1F787E0982F906A969590935E
:1010E000E802809581708093E9028091D702811196
:1010F00012C08091D3020E94DC008091D4020E9431
:10110000DC0060E08091D3020E94120260E08091D6
:10111000D4020E94120289E28093D6020E94DC006F
:1011200061E08091D6020E9412021092EA020E94AF
:1011300090021092EB028091F90290E0906B0E9475
:10114000660284B38F6084BB0E94EE01019709F0B0
:10115000B3C00E94EE01892B09F0A9C00E94A0042F
:101160001092D1021092D00290E080E00E94880E8E
:10117000898381E090E00E94880E8A83E980FA806A
:1011800010E000E02FEFE216F20609F0A3C080E3C2
:1011900091E00E94FF040E94C2025B016C01609317
:1011A0001503B092160380931703D0921803109280
:1011B000190310921A0310921B0310921C039B0137
:1011C000AC0160E070E080E090E0A0900D03B09092
:1011D0000E03C0900F03D0901003E0901103F09025
:1011E000120300911303109114030E94D60F2F32A3
:1011F000354741055105610571058105910511F1DD
:1012000008F18091060390910703892B09F06DC0C6
:1012100086E391E00E94FF041BBC1ABC0E94C2023C
:101220008B019C0160930D0310930E0380930F03B9
:1012300030931003109211031092120310921303B3
:10124000109214039CE0B92E26E0A22E86E292E0D2
:101250000E945F03181619060CF01CC46FE271E0BF
:10126000CE0101960E9411060E941F0397FDD0C176
:101270008A30910509F4CCC18F8318860D811E81B7
:101280000F5F1F4FB801CE0101960E94BE05882353
:1012900059F329813A818D819E81BE01695F7F4F1B
:1012A000820F931F0E94F7111E830D83DDCF0E94D2
:1012B00072044FCF0E9444040E94EE010197D1F7BF
:1012C0000E94A0040E94EE01892B09F447CF0E94DE
:1012D0007204F8CF0E151F052CF40E9444040F5F12
:1012E0001F4FF8CF0E94A00452CF0E94AE059093EA
:1012F0001E0380931D038BE391E00E94AE040E94C5
:10130000AE058C0190931E0380931D0380910A0308
:1013100081114DC161E00F3311050CF499C0093BF7
:1013200011050CF044C162E30C37110509F490C0BB
:101330000CF0ADC064E10735110509F489C00CF06B
:101340007EC06AE00F33110509F482C0C8018054E1
:1013500091098731910508F4B1C04897883191050A
:1013600008F4B7C049978830910508F4BDC00997C3
:101370008230910508F4C3C003978230910508F4C8
:10138000C9C003978530910508F4CFC00697873010
:10139000910508F4D5C008978930910508F4DBC0A1
:1013A0000A978930910508F4E1C00A978D309105BC
:1013B00008F4E7C00E97099708F4EEC08985E82E77
:1013C000F12C9A85692F70E06E197F09072E000CA9
:1013D000880B990B0E948F0D5B016C01B801681995
:1013E0007909072E000C880B990B0E948F0D9B0129
:1013F000AC01C601B5010E94CA0D5B016C01B301CD
:1014000068197909072E000C880B990B0E948F0D23
:101410009B01AC01C601B5010E940A0F5B016C0182
:10142000B701FF0C880B990B0E948F0D9B01AC013B
:10143000C601B5010E949E0E0E947C0F09C06EE19C
:101440000037110529F068E20937110509F07ECF50
:10145000862F90E00E940D0580910C0320910803D7
:101460003091090340911D0350911E038111C1C0A9
:10147000255031092417350708F09BC061E080E250
:101480000E941202E1E0F0E0FBBDEABDC7CE60E5DC
:101490000D381105E9F24CF46CE30F371105C1F278
:1014A00066E405381105A1F251CF6AE50739110547
:1014B00079F264E6013A110559F248CFF4E1FA876E
:1014C0002AE02987B7E56B2E712C8FE3882E912CAB
:1014D00075CF8EE18A8794E19987F0E76F2E712CA2
:1014E000A7E58A2E912C6ACFE8E2EA87FEE1F98728
:1014F00079E7672E712CE0E78E2E912C5FCF22E3E7
:101500002A8788E289875CE7652E712C69E7862E39
:10151000912C54CF9CE39A87E2E3E9873FE7632E5F
:10152000712C4CE7842E912C49CFF6E4FA872CE3FA
:10153000298795E8692E712C2FE7822E912C3ECFBA
:1015400080E58A8796E49987BDE86B2E712C85E843
:10155000882E912C33CFEAE5EA87F0E5F987F7E9A1
:101560006F2E712CADE88A2E912C28CF24E62A8785
:101570008AE5898771EA672E712CE7E98E2E912C16
:101580001DCF9EE69A87E4E6E9875FEA652E712C17
:1015900061EA862E912C12CFF8E7FA872EE629878A
:1015A00039EB632E712C4FEA842E912C07CF6FEF0D
:1015B0004FCF60E080E20E94120240911D035091E3
:1015C0001E03209108033091090380910603909136
:1015D00007032417350730F402978115F4E09F07BD
:1015E000A0F004C0811524E0920778F08FEF93E01B
:1015F0000CC080910603909107032417350768F704
:1016000002978115E4E09E0788F79BBD8ABD06CE50
:101610008091450390914603009709F464C0698165
:101620007A816115710509F45CC0409147035091BE
:1016300048032D813E814217530708F452C00E948F
:10164000F7118D819E8190934A03809349031E82F6
:101650001D82CE0101960E941F0580914903909141
:101660004A03892B09F4F2CD6FE371E0CE010196B4
:101670000E941106CE0101960E942705182FCE0167
:1016800001960E941F05112309F444C0609149038B
:1016900070914A037727CE0101960E942206898124
:1016A0009A8160E0009711F00E94510D60931C0236
:1016B000CE0101960E941F0583E491E00E94AE04D2
:1016C00060911C0270E090E080E04AE00E94BB0460
:1016D0008DE291E00E94AE0480911C020E94FB000A
:1016E000B5CD0E947B1089819A81909346038093A7
:1016F00045038B819C8190934803809347038D81A0
:101700009E8190934A03809349031A8219821C8216
:101710001B829DCF89E491E00E944405882349F013
:101720008FE491E00E94FF04A092EA020E949002DE
:101730008DCD87E591E00E944405882369F08FE410
:1017400091E00E94FF04A092EB028091FF0290E0E2
:10175000906B0E9466027ACD8DE591E00E9444056F
:10176000882339F084E691E00E94FF041092EA0297
:10177000DDCF8CE691E00E944405882349F084E6A1
:1017800091E00E94FF041092EB028091F902DFCFFA
:1017900083E791E00E944405882379F088E791E08F
:1017A0000E94FF048091EA028F5F8D301CF48093C9
:1017B000EA02BCCFB092EA02B9CF8FE791E00E9473
:1017C00044058823B9F084E891E00E94FF048091E9
:1017D000EB028F5F8D301CF48093EB0202C0B0925D
:1017E000EB02E091EB020E2E000CFF0BED52FD4FD1
:1017F00086A1ADCF8BE891E00E944405882351F08B
:1018000080E991E00E94FF048091EA02815087FD07
:10181000ADCFCDCF87E991E00E944405882361F0E8
:101820008CE991E00E94FF048091EB02815087FFD8
:10183000D3CF1092EB02D5CF83EA91E00E9444050A
:10184000882331F088EA91E00E94FF0482E346CFCA
:101850008FEA91E00E944405882331F085EB91E006
:101860000E94FF0480E03ACF8DEB91E00E94440596
:10187000882349F081EC91E00E94FF0461E080E25E
:101880000E941202E3CC87EC91E00E944405882379
:1018900031F08CEC91E00E94FF0460E0F0CF83ED2A
:1018A00091E00E944405882361F187ED91E00E9458
:1018B000FF040E949C026B017C0188E8282E83E1D2
:1018C000382E412C512C0E949C026C197D098E09E6
:1018D0009F09683E734081059105A8F321E0221A13
:1018E00031084108510888EEC80E83E0D81EE11C7B
:1018F000F11C211431044104510429F7F0E0E0E027
:1019000009958DED91E00E944405882349F081EE10
:1019100091E00E94FF040E9444040E94A00496CC1F
:1019200087EE91E00E944405882339F08BEE91E028
:101930000E94FF040E947204F0CF81EF91E00E94A8
:101940004405882379F085EF91E00E94FF0480919F
:10195000D0029091D1029A838983CE0101960E9490
:10196000230474CC8BEF91E00E944405882339F066
:101970008FEF91E00E94FF048FEF9FEFECCF65E0C7
:1019800072E0CE0101960E941106CE0101960E94DE
:101990002705182FCE0101960E941F051123A1F1E2
:1019A0006091490370914A037727CE0101960E9406
:1019B000220689819A81009719F10E94510D709336
:1019C0001B0260931A02CE0101960E941F0589E056
:1019D00092E00E94AE0480911A0290911B020E9434
:1019E0000D05E0901A02F0901B0210E000E0E016F6
:1019F000F10609F492CF0E9444040F5F1F4FF7CF06
:101A000060E070E0CB01DBCF6FE072E0CE010196C9
:101A10000E941106CE0101960E942705182FCE01C3
:101A200001960E941F05112309F410CC609149030F
:101A300070914A037727CE0101960E942206898180
:101A40009A81009719F10E94510D70931B026093C7
:101A50001A02CE0101960E941F0583E192E00E94C6
:101A6000AE0480911A0290911B020E940D05E09035
:101A70001A02F0901B0210E000E0E016F10609F4F3
:101A80004CCF0E9472040F5F1F4FF7CF60E070E0F1
:101A9000CB01DBCF0E9404047ECB85E493E00C9461
:101AA0001F051F93FC0199278827BC01E894119119
:101AB0001032E9F3193010F01E30C8F31B3251F028
:101AC0001D3249F4689406C00E94780D610F711DA3
:101AD000811D911D119110531A30B0F33EF4909571
:101AE0008095709561957F4F8F4F9F4F1F910895FF
:101AF000592F482F372F262F660F771F881F991FC2
:101B0000660F771F881F991F620F731F841F951F11
:101B1000660F771F881F991F0895E89409C097FBE7
:101B20003EF490958095709561957F4F8F4F9F4FB4
:101B30009923A9F0F92F96E9BB279395F6958795F8
:101B400077956795B795F111F8CFFAF4BB0F11F4BB
:101B500060FF1BC06F5F7F4F8F4F9F4F16C0882362
:101B600011F096E911C0772321F09EE8872F762F98
:101B700005C0662371F096E8862F70E060E02AF0D9
:101B80009A95660F771F881FDAF7880F96958795C5
:101B900097F908950E94DD0D0C944E0E0E94400EA0
:101BA00038F00E94470E20F0952311F00C94370E68
:101BB0000C943D0E11240C94820E0E945F0E70F363
:101BC000959FC1F3950F50E0551F629FF001729FE2
:101BD000BB27F00DB11D639FAA27F00DB11DAA1FF1
:101BE000649F6627B00DA11D661F829F2227B00D3E
:101BF000A11D621F739FB00DA11D621F839FA00DC9
:101C0000611D221F749F3327A00D611D231F849F18
:101C1000600D211D822F762F6A2F11249F5750406F
:101C20009AF0F1F088234AF0EE0FFF1FBB1F661FEA
:101C3000771F881F91505040A9F79E3F510580F0B3
:101C40000C94370E0C94820E5F3FE4F3983ED4F36D
:101C5000869577956795B795F795E7959F5FC1F757
:101C6000FE2B880F911D9695879597F9089597F902
:101C70009F6780E870E060E008959FEF80EC089532
:101C800000240A941616170618060906089500245B
:101C90000A9412161306140605060895092E0394D5
:101CA000000C11F4882352F0BB0F40F4BF2B11F449
:101CB00060FF04C06F5F7F4F8F4F9F4F089557FDA8
:101CC0009058440F551F59F05F3F71F04795880FAA
:101CD00097FB991F61F09F3F79F087950895121641
:101CE00013061406551FF2CF4695F1DF08C01616ED
:101CF00017061806991FF1CF86957105610508949E
:101D00000895E894BB2766277727CB0197F90895B4
:101D1000E199FECF9FBB8EBBE09A99278DB30895C2
:101D2000262FE199FECF9FBB8EBB2DBB0FB6F8943B
:101D3000E29AE19A0FBE019608955058BB27AA2750
:101D40000E94B50E0C944E0E0E94400E38F00E9478
:101D5000470E20F039F49F3F19F426F40C943D0E01
:101D60000EF4E095E7FB0C94370EE92F0E945F0E0E
:101D700058F3BA17620773078407950720F079F4C0
:101D8000A6F50C94810E0EF4E0950B2EBA2FA02D23
:101D90000B01B90190010C01CA01A0011124FF2718
:101DA000591B99F0593F50F4503E68F11A16F04013
:101DB000A22F232F342F4427585FF3CF4695379512
:101DC0002795A795F0405395C9F77EF41F16BA0BD7
:101DD000620B730B840BBAF09150A1F0FF0FBB1F85
:101DE000661F771F881FC2F70EC0BA0F621F731FCE
:101DF000841F48F4879577956795B795F7959E3F2B
:101E000008F0B0CF9395880F08F09927EE0F9795BB
:101E1000879508950E941E0F0C944E0E0E94470E47
:101E200058F00E94400E40F029F45F3F29F00C94D6
:101E3000370E51110C94820E0C943D0E0E945F0ED1
:101E400068F39923B1F3552391F3951B550BBB27E9
:101E5000AA2762177307840738F09F5F5F4F220F2E
:101E6000331F441FAA1FA9F335D00E2E3AF0E0E825
:101E700032D091505040E695001CCAF72BD0FE2F6F
:101E800029D0660F771F881FBB1F26173707480703
:101E9000AB07B0E809F0BB0B802DBF01FF279358BB
:101EA0005F4F3AF09E3F510578F00C94370E0C943A
:101EB000820E5F3FE4F3983ED4F38695779567955D
:101EC000B795F7959F5FC9F7880F911D96958795F0
:101ED00097F90895E1E0660F771F881FBB1F62170F
:101EE00073078407BA0720F0621B730B840BBA0BCD
:101EF000EE1F88F7E09508950E94670E88F09F57BF
:101F000098F0B92F9927B751B0F0E1F0660F771F1D
:101F1000881F991F1AF0BA95C9F714C0B13091F013
:101F20000E94810EB1E008950C94810E672F782FE6
:101F30008827B85F39F0B93FCCF3869577956795D8
:101F4000B395D9F73EF490958095709561957F4F44
:101F50008F4F9F4F0895A1E21A2EAA1BBB1BFD01B4
:101F60000DC0AA1FBB1FEE1FFF1FA217B307E40778
:101F7000F50720F0A21BB30BE40BF50B661F771FD0
:101F8000881F991F1A9469F76095709580959095B0
:101F90009B01AC01BD01CF010895EE0FFF1F00248E
:101FA000001C0BBE0790F691E02D09942A193B09FD
:101FB0004C095D096E097F09800B910B08950F9301
:101FC0001F93CF93DF938230910510F482E090E06D
:101FD000E0914D03F0914E0330E020E0B0E0A0E04E
:101FE000309799F42115310509F44AC0281B390BA3
:101FF00024303105D8F58A819B816115710589F1FD
:10200000FB0193838283FE0111C0408151810281D3
:10201000138148175907E0F04817590799F41097AA
:1020200061F012960C93129713961C933296CF017F
:10203000DF91CF911F910F91089500934D0310935D
:102040004E03F4CF2115310551F04217530738F0F4
:10205000A901DB019A01BD01DF01F801C1CFEF0148
:10206000F9CF90934E0380934D03CDCFFE01E20F45
:10207000F31F819391932250310939832883D7CF5D
:1020800020914B0330914C03232B41F4209102010A
:102090003091030130934C0320934B0320910001B6
:1020A000309101012115310541F42DB73EB7409122
:1020B000040150910501241B350BE0914B03F09175
:1020C0004C03E217F307A0F42E1B3F0B2817390728
:1020D00078F0AC014E5F5F4F2417350748F04E0F84
:1020E0005F1F50934C0340934B03819391939FCF79
:1020F000F0E0E0E09CCFCF93DF930097E9F0FC01A4
:10210000329713821282A0914D03B0914E03ED01DC
:1021100030E020E01097A1F420813181820F931FDD
:1021200020914B0330914C032817390709F061C007
:10213000F0934C03E0934B03DF91CF910895EA01B4
:10214000CE17DF07E8F54A815B819E0141155105F5
:10215000B1F7E901FB83EA8349915991C40FD51F77
:10216000EC17FD0761F4808191810296840F951F21
:10217000E90199838883828193819B838A83F0E03C
:10218000E0E012968D919C9113970097B9F52D91EF
:102190003C911197CD010296820F931F20914B0322
:1021A00030914C032817390739F6309751F51092C2
:1021B0004E0310924D03B0934C03A0934B03BCCF3E
:1021C000D383C28340815181840F951FC817D907DB
:1021D00061F44E5F5F4F88819981480F591F518389
:1021E00040838A819B81938382832115310509F085
:1021F000B0CFF0934E03E0934D039ECFFD01DC0181
:10220000C0CF13821282D7CF4F925F926F927F928C
:102210008F929F92AF92BF92CF92DF92EF92FF92F6
:102220000F931F93CF93DF938C01009799F4CB0109
:10223000DF91CF911F910F91FF90EF90DF90CF90A2
:10224000BF90AF909F908F907F906F905F904F90D6
:102250000C94DF0FFC01E60FF71F9C01225031099F
:10226000E217F30708F4AEC0D901CD91DC911197C4
:10227000C617D70720F1C530D10578F0CE010497F5
:102280008617970750F0C61BD70B2297C193D1939F
:102290006D937C93CF010E947B10C801DF91CF9199
:1022A0001F910F91FF90EF90DF90CF90BF90AF9074
:1022B0009F908F907F906F905F904F9008955B01FB
:1022C000AC1ABD0A4C018C0E9D1EA0914D03B0911D
:1022D0004E03512C412CF12CE12C109731F58091BB
:1022E0004B0390914C038815990509F05CC0461684
:1022F000570608F058C080910001909101010097A5
:1023000041F48DB79EB74091040150910501841BA3
:10231000950BE817F90708F055C0F0934C03E093CC
:102320004B03F90171836083B8CF8D919C91119714
:1023300012966C90129713967C901397A815B90576
:1023400059F56C0142E0C40ED11CCA14DB0420F123
:10235000AC014A195B09DA011296159780F0628286
:10236000738251834083D9016D937C93E114F1040E
:1023700071F0D7011396FC93EE9312978ECF2296AD
:102380008C0F9D1FF90191838083F301EFCFF093B0
:102390004E03E0934D0381CF4816590608F42C01F3
:1023A0007D01D3019ACFCB010E94DF0F7C01009702
:1023B00049F0AE01B8010E94E511C8010E947B10EE
:1023C00087016BCF10E000E068CFFB01DC0102C0A9
:1023D00001900D9241505040D8F70895FB01DC0167
:1023E0008D91019080190110D9F3990B0895FB018B
:1023F000DC0101900D920020E1F70895FB01DC0162
:102400004150504030F08D910190801919F4002016
:10241000B9F7881B990B089510E0CFEAD0E004C00B
:10242000FE010E94CD0F2196C03BD107C9F7F89459
:10243000FFCF00004F038000000A141E28323C46E4
:10244000505A646E780903060C0603090C0000005C
:10245000009703CF02FC02E4035F030B0351030D5B
:102460000A005354524F4B004354443000435444E9
:1024700000535444005354444F4B004C54314F4E7E
:10248000004C54314F4E4F4B004C54324F4E004C89
:1024900054314F4646004C544F46464F4B004C5427
:1024A000324F4646004C543155004C5431554F4B39
:1024B000004C543255004C5432554F4B004C543163
:1024C00044004C5431444F4B004C543244004C5463
:1024D00032444F4B0042424F4E0042424F4E4F4B10
:1024E0000042424F46460042424F46464F4B00563E
:1024F0004F4E00564F4E4F4B00564F464600564FDC
:1025000046464F4B00525354005253544F4B004DCC
:102510004653004D46534F4B004D4253004D4253DE
:102520004F4B004D535A004D535A4F4B004D525A8A
:10253000004D525A4F4B004D4D46004D4D464F4BAE
:0C254000004D4D42004D4D424F4B00003D
:020000040001F9
:10FE000011248FEF90E19EBF8DBF24B614BE80E019
:10FE100081D021FE39C18EE07DD0AFE7BFEF0899D8
:10FE2000FECF9096089BFDCFB9B91197F1F782E00C
:10FE30008BB988E18AB911E05BD0C82F823599F47B
:10FE40006DD0E0E0FEEF1BBF309719F48BB7815007
:10FE50008BBFFA95A89583E089D03097A9F78BB727
:10FE60008111F2CF3EC08D7FE9F44DD0D82FA0E0B4
:10FE7000B1E03ED08D93DA13FCCF50D0C1110EC04B
:10FE8000A0E0B1E0E199FECFFFBBEEBB8D918DBB51
:10FE9000E29AE19A3196DA13F5CF23C0A0E0B1E0FF
:10FEA00048D01FC0C33041F42ED0C82F37D087911F
:10FEB0001BD0C150E1F715C0C13071F424D0C82F58
:10FEC0002DD0E199FECFFFBBEEBBE09A8DB30CD0F5
:10FED0003196C150B1F705C0C13511F488E01AD090
:10FEE0001DD085E501D0A8CF5D9BFECF8CB90895CC
:10FEF000C59ABD9A8BB187FFFDCF84FD12C0A8952E
:10FF00008CB1C5980895F4DFE82FF2DFF82FF0DF09
:10FF10008BBFEECF98E191BD81BD0895E9DF8032BE
:10FF200019F088E0F7DFFFCF80EADECF6BBFFA0180
:10FF3000DC016A2F9F01FE3F9BB781E09807E8F440
:10FF400083E014D0903039F4309629F48FEF8D93FC
:10FF50008EEC8C93119781E00D901D9007D0329616
:10FF6000A613FACFF90185E001D081E18093680002
:0EFF7000E8950090680000FCFCCF1124089575
:06FFFA00022297CFE73F51
:00000001FF
