:100000000C94A8000C94D2000C94D2000C94D20052
:100010000C94D2000C94D2000C94D2000C94D20018
:100020000C94D2000C94D2000C94D2000C94D20008
:100030000C94D2000C94D2000C94D2000C94D200F8
:100040000C9441060C94D2000C94B5060C948B06CB
:100050000C94D2000C94D2000C94D2000C94D200D8
:100060000C94D2000C94D2000C94D2000C94D200C8
:100070000C94D2000C94D2000C94D2000C94D200B8
:100080000C94D2000C94D2000C94D2000000000A10
:100090000B0C000000000000010405060000000039
:1000A0000000000000000000000000000000000050
:1000B0000000000000000000000000000000000040
:1000C0000000003B0038003500320023006200656C
:1000D0000000003A00370034003100220061006463
:1000E00000050505050505050502020202020202DA
:1000F00002070704040404040404040707030303B9
:1001000003030303030701010101010101010606C5
:1001100006060606060601020408102040800102B9
:1001200004081020408008100102040810204080BC
:1001300001020102040810204080048040201008C1
:10014000040201010204081020408000EB06590D52
:1001500011241FBECFEFD0E1DEBFCDBF23E0AAE167
:10016000B2E001C01D92AF34B207E1F712E0A0E0A7
:10017000B1E0EAE4F4E200E00BBF02C007900D92A8
:10018000AA31B107D9F710E0C7EAD0E004C021973F
:10019000FE010E94D90FC63AD107C9F70E949B07FA
:1001A0000C9418120C94000090E0FC01EA5EFE4FE3
:1001B00024918F519F4FFC018491882399F090E006
:1001C000880F991FFC01EF52FF4FA591B491FC01DC
:1001D000EF53FF4F859194918FB7F894EC91E22BF8
:1001E000EC938FBF0895811114C010923F031092B9
:1001F0003E0310924103109240031092420387E0A5
:10020000EEE3F3E0A6E0B3E001900D928A95E1F70A
:10021000089520914303821791F391E0281708F085
:1002200090E09093440380934303823309F461C0C8
:1002300008F5843109F44BC078F48A30D9F18C3355
:1002400009F466C008F080C08E3109F44FC008F090
:1002500074C0843191F641C08E3109F441C08832B6
:1002600071F789E790E0909341038093400384ED18
:1002700090E028C0803509F44EC070F48C3309F446
:1002800041C08634E1F685E890E090934103809385
:1002900040038EE091E016C08A3509F445C08436EB
:1002A00071F681EA90E090934103809340038BE9DB
:1002B00091E008C08FE390E0909341038093400366
:1002C00084E690E090933F0380933E0396CF87E5CA
:1002D00090E0909341038093400387E890E0F2CF51
:1002E00080E790E0909341038093400387EB90E098
:1002F000E9CF8CE790E0909341038093400385EE33
:1003000090E0E0CF8FE790E090934103809340032B
:1003100086EF90E0D7CF8DE890E0909341038093F3
:10032000400387E291E0CECF87E990E090934103CC
:10033000809340038EE591E0C5CF883209F497CFD2
:10034000823309F05ACFDBCF803559F320F486345D
:1003500009F053CF9ECF8A3569F3843609F04DCF2B
:10036000A6CF90E0FC01E457FF4F2491FC01EA5E28
:10037000FE4F34918F519F4FFC018491882359F196
:100380002223C1F021502C30A8F4E22FF0E0E553F5
:10039000FE4F0C94D90F04020402DA01D701EC01DC
:1003A000EF01F201DA01DA01F601FC0100029FB56A
:1003B0009F779FBDE82FF0E0EE0FFF1FEF53FF4F39
:1003C000A591B4918FB7F894EC91611121C030954B
:1003D0003E233C938FBF08959FB59F7DEACF9FB585
:1003E000977FE7CF95B59F7D95BDE4CF90918B002A
:1003F0009F7790938B00DECF90918B009F7DF9CFFC
:1004000090918B00977FF5CF93B79F7D93BFD2CF0D
:100410003E2BDFCFEF92FF920F931F93CF93DF938B
:10042000E82E0091D402F090D302C8E0D0E010E8AA
:100430006E2D61238F2D0E94B10161E0802F0E94FB
:10044000B10160E0802F0E94B1011695219781F7DC
:1004500080E0DF91CF911F910F91FF90EF90089571
:10046000CF93DF93EC0160E08091D5020E94B1014F
:100470008091D7028823B9F09091E8028091E90237
:100480009DB98EB9DFB90000779BFECF8FB1CFB990
:100490000000779BFECF8FB161E08091D502DF91A4
:1004A000CF910C94B1018D2F0E940A028C2F0E94D3
:1004B0000A02F2CFE091EA020E2E000CFF0BED5281
:1004C000FD4F818D90E090630C9430023FB7F8941B
:1004D0008091220290912302A0912402B0912502E2
:1004E00022B706B600FE05C02F3F19F00196A11DE8
:1004F000B11D3FBFBA2FA92F982F8827BC01CD016E
:10050000620F711D811D911D42E0660F771F881FCC
:10051000991F4A95D1F708958F929F92AF92BF92FB
:10052000CF92DF92EF92FF924B015C010E94660234
:100530006B017C010E9466026C197D098E099F097E
:10054000683E734081059105A8F321E0821A910865
:10055000A108B10888EEC80E83E0D81EE11CF11C8A
:1005600081149104A104B10429F7FF90EF90DF906A
:10057000CF90BF90AF909F908F9008952FB7F89431
:1005800060911E0270911F028091200290912102C1
:100590002FBF08950895AF92BF92CF92DF92EF924E
:1005A000FF920F931F93CF93DF936C017B018B011D
:1005B000040F151FEB015E01AE18BF08C017D1076D
:1005C00059F06991D601ED91FC910190F081E02DF7
:1005D000C6010995892B79F7C501DF91CF911F914C
:1005E0000F91FF90EF90DF90CF90BF90AF90089564
:1005F000FC01538D448D252F30E0842F90E0821B29
:10060000930B541710F0CF96089501970895FC01AD
:10061000918D828D981761F0A28DAE0FBF2FB11D05
:100620005D968C91928D9F5F9F73928F90E008955D
:100630008FEF9FEF08950F931F930E94BE02609368
:100640002E0270932F02809330029093310286E243
:1006500092E00E94070397FF1DC00E94BE02009116
:100660002E0210912F022091300230913102601B36
:10067000710B820B930B00912A0210912B02209197
:100680002C0230912D026017710782079307F8F250
:100690008FEF9FEF1F910F910895FC01918D828D37
:1006A000981731F0828DE80FF11D858D90E0089547
:1006B0008FEF9FEF0895FC01918D228D892F90E09F
:1006C000805C9F4F821B91098F739927089586E262
:1006D00092E00E945B0321E0892B09F420E0822F45
:1006E0000895FC01A48DA80FB92FB11DA35ABF4FC7
:1006F0002C91848D90E001968F739927848FA68921
:10070000B7892C93A089B1898C91837080648C9374
:10071000938D848D981306C00288F389E02D808123
:100720008F7D80830895EF92FF920F931F93CF9355
:10073000DF93EC0181E0888F9B8D8C8D98131AC01C
:10074000E889F989808185FF15C09FB7F894EE8903
:10075000FF896083E889F989808183708064808360
:100760009FBF81E090E0DF91CF911F910F91FF90AB
:10077000EF900895F62E0B8D10E00F5F1F4F0F7353
:100780001127E02E8C8D8E110CC00FB607FCFACF0E
:10079000E889F989808185FFF5CFCE010E94710338
:1007A000F1CFEB8DEC0FFD2FF11DE35AFF4FF082DF
:1007B0009FB7F8940B8FEA89FB8980818062CFCF45
:1007C000CF93DF93EC01888D8823B9F0AA89BB8988
:1007D000E889F9898C9185FD03C0808186FD0DC073
:1007E0000FB607FCF7CF8C9185FFF2CF808185FF94
:1007F000EDCFCE010E947103E9CFDF91CF91089533
:1008000080E090E0892B29F00E94670381110E940B
:10081000000080E090E0892B49F080E090E0892B97
:1008200029F00E94000081110C940000089595B3F6
:10083000907F95BB95B38F70892B85BB08951F93CF
:10084000CF93DF93EC01188190E080E00E94940E3A
:10085000181729F0612F90E080E00E949C0E19810A
:1008600081E090E00E94940E181729F0612F81E03A
:1008700090E00E949C0ECE01DF91CF911F910895D0
:10088000FC0101900020E9F73197AF01481B590B9B
:10089000BC0186E292E00C94CB028F929F92AF92C1
:1008A000BF920F931F93CF93DF93CDB7DEB7A1977E
:1008B0000FB6F894DEBF0FBECDBF19A2423008F4C8
:1008C0004AE08E010F5D1F4F842E912CB12CA12C7C
:1008D000A50194010E94B70FE62FB901CA01EA30C1
:1008E000F4F4E05DD801EE938D01232B242B252B0E
:1008F00079F790E080E0109719F0CD010E94400454
:10090000A1960FB6F894DEBF0FBECDBFDF91CF9199
:100910001F910F91BF90AF909F908F900895E95CC9
:10092000E1CFCF92DF92EF92FF92CF93DF936C01F2
:10093000990FEE08FF08F7FE1FC06DE286E292E015
:100940000E949303EC0166277727CB016C197D0980
:100950008E099F094AE00E944D04C80FD91F8DE2FD
:1009600091E00E9440048C0F9D1FDF91CF91FF907A
:10097000EF90DF90CF9008954AE0C701B6010E9442
:100980004D04EC01ECCFCF93DF930E944004EC01C7
:100990008DE291E00E9440048C0F9D1FDF91CF916A
:1009A0000895FC0180819181009711F00C948710CB
:1009B0000895FC01448155818091490390914A0337
:1009C0008417950780F08091450390914603009726
:1009D00051F0608171816115710529F00E940A1240
:1009E00021E0892B09F020E0822F0895209149030E
:1009F00030914A03232B39F421E0FC0180818823C4
:100A000061F020E00AC0BC0180914503909146034B
:100A10000E94FA1121E0892BA1F7822F0895E2E2CA
:100A2000F3E084E1DF011D928A95E9F7369A369B5F
:100A3000FECF94B185B189279827892790933B03EE
:100A400080933A0381939193B3E0E633FB0771F708
:100A500008950E940F050E940F050E940F05E6E20F
:100A6000F3E080E090E0DC0141915191052E000C13
:100A7000660B770B840F951FA61FB71F23E0E63385
:100A8000F20791F78093360390933703A0933803CE
:100A9000B093390323E0B595A795979587952A9547
:100AA000D1F79C0190933D0380933C03813042E059
:100AB000940724F020E032E0281B390BC901089587
:100AC00080910A03811106C03A9887B18B6187B97A
:100AD0000C94290587B18D7E87B987B18D60F7CFDA
:100AE00090E080E00E9417042FEF89EF90E0215002
:100AF00080409040E1F700C0000008950F931F93DD
:100B0000CF93DF93EC0188819981009759F02A8176
:100B10003B812617370730F081E0DF91CF911F919D
:100B20000F9108958B016F5F7F4F0E941011009706
:100B300059F0998388831B830A832C813D81232B61
:100B400059F7FC011082E8CF80E0E7CFEF92FF92E7
:100B50000F931F93CF93DF93EC017B018A01BA01BE
:100B60000E947E0528813981811114C0211531052B
:100B700019F0C9010E948710198218821D821C82F7
:100B80001B821A82CE01DF91CF911F910F91FF90AE
:100B9000EF9008951D830C83B701C9010E940312D1
:100BA000F1CFFC011182108213821282158214820D
:100BB000FB0101900020E9F73197AF01461B570B6D
:100BC0000C94A605CF92DF92EF92FF920F931F93A2
:100BD000CF93DF93EC017B0183E0C82ED12C6330EF
:100BE000710520F46B0193E0E92EF12C6FE271E0C6
:100BF000CE010E94D1050091490310914A03C0160D
:100C0000D10640F5E016F10608F48701E0914503AE
:100C1000F0914603E00FF11FF080108260914503D0
:100C2000709146036C0D7D1D61157105E9F0FB01A6
:100C300001900020E9F73197AF01461B570BCE0119
:100C40000E94A6058091450390914603080F191F45
:100C5000F801F082CE01DF91CF911F910F91FF90AB
:100C6000EF90DF90CF90089588819981009711F0DF
:100C70000E948710198218821D821C821B821A8290
:100C8000E1CF1F920F920FB60F9211242F933F9333
:100C90008F939F93AF93BF9380911E0290911F02F9
:100CA000A0912002B091210230911D0223E0230F78
:100CB0002D3768F126E8230F0296A11DB11D209360
:100CC0001D0280931E0290931F02A0932002B093F6
:100CD00021028091220290912302A0912402B091DE
:100CE00025020196A11DB11D80932202909323023B
:100CF000A0932402B0932502BF91AF919F918F9151
:100D00003F912F910F900FBE0F901F901895019655
:100D1000A11DB11DD4CF1F920F920FB60F921124B7
:100D20000BB60F922F933F934F935F936F937F93E5
:100D30008F939F93AF93BF93EF93FF9386E292E0DD
:100D40000E947103FF91EF91BF91AF919F918F919D
:100D50007F916F915F914F913F912F910F900BBEBB
:100D60000F900FBE0F901F9018951F920F920FB605
:100D70000F9211240BB60F922F938F939F93EF93A3
:100D8000FF93E0913602F09137028081E0913C02BE
:100D9000F0913D0282FD1DC0908180913F028F5FE6
:100DA0008F7320914002821741F0E0913F02F0E002
:100DB000EA5DFD4F958F80933F02FF91EF919F91E8
:100DC0008F912F910F900BBE0F900FBE0F901F9021
:100DD00018958081F2CFE6E2F2E01382128288EE6B
:100DE00093E0A0E0B0E084839583A683B7838FE18E
:100DF00091E09183808380E990E09587848789E200
:100E000090E0978786878BE290E0918B808B8AE2D7
:100E100090E0938B828B85E990E0958B848B8CE2BC
:100E200090E0978B868B118E128E138E148E6FE24C
:100E300071E085E493E00E94D105E6E0F3E01182E1
:100E400010821382128214821582168217821086F3
:100E50001186128613861486158616861786108AC2
:100E6000118A128A138A148A158A168A108E178A92
:100E7000128E118E11AE10AE13AE12AE14AE15AEB0
:100E800016AEE3EDF2E09FEF938340E054E264EFAF
:100E900070E04583568367837087118A81E0828B77
:100EA00020E5258B168A23EC32E0348B238B90834C
:100EB0009183128284838187808B1586148617869E
:100EC00016868FEF9FE093878287178A108E8DE0BA
:100ED000E6E0F1E0ACEEB2E001900D928A95E1F728
:100EE0008DE0E6E0F1E0A9EFB2E001900D928A9585
:100EF000E1F7E4ECF2E08091130190911401A091EC
:100F00001501B091160180839183A283B3838091F0
:100F1000170190911801A0911901B0911A018483D1
:100F20009583A683B783118610861386128615864D
:100F3000148616860895CF93DF93CDB7DEB72A9730
:100F40000FB6F894DEBF0FBECDBF789483B78C6424
:100F500083BF87B7816087BF92E09EBD8EB58160F9
:100F60008EBD8FB581608FBD85B5846085BD85B52B
:100F7000806485BD80918A00836080938A0080911F
:100F80008B00816080938B0087E886B91AB8E09166
:100F90003602F09137029083E0913202F0913302F1
:100FA0001082E0913402F09135028FEC8083109230
:100FB0003E02E0913A02F0913B0286E08083E091AC
:100FC0003802F0913902808188698083E09138028B
:100FD000F091390280818F7D8083BD9AC5981BBCBA
:100FE0001ABC8FB583608FBD8EB588608EBD8FB5FE
:100FF00080688FBD8EB584608EBD8EB58C7F8EBDB2
:10100000379A86B1887F86B93E9A80E00E94F300C5
:101010008BE28093D5020E94D40061E08091D502DA
:101020000E94B1010091D8021091D9022091DA02F8
:101030003091DB0240E052E16AE770E080E00417A3
:1010400015072607370740F4769567955795479516
:101050008F5F8630A1F787E0982F906A96959093DE
:10106000E802809581708093E9028091D702811116
:1010700012C08091D3020E94D4008091D4020E94B9
:10108000D40060E08091D3020E94B10160E08091C1
:10109000D4020E94B10189E28093D6020E94D4005A
:1010A00061E08091D6020E94B1011092EA020E9492
:1010B0005A021092EB028091F90290E0906B0E942C
:1010C000300280E391E00E94C30422242394312C57
:1010D00044244A94542C0E94BE025B016C0160932C
:1010E0001503B092160380931703D0921803109241
:1010F000190310921A0310921B0310921C039B01F8
:10110000AC0160E070E080E090E0A0900D03B09052
:101110000E03C0900F03D0901003E0901103F090E5
:10112000120300911303109114030E94E20F2F3257
:10113000354741055105610571058105910511F19D
:1011400008F18091060390910703892B09F04FC0A5
:1011500086E391E00E94C3041BBC1ABC0E94BE023D
:101160008B019C0160930D0310930E0380930F037A
:101170003093100310921103109212031092130374
:10118000109214038CE0F82E96E0E92E86E292E0AD
:101190000E945B03181619060CF088C46FE271E018
:1011A000CE0101960E94D1050E941B0397FDB6C196
:1011B0008A30910509F4B2C18F8318860D811E8192
:1011C0000F5F1F4FB801CE0101960E947E05882354
:1011D00059F329813A818D819E81BE01695F7F4FDC
:1011E000820F931F0E9403121E830D83DDCF0E9486
:1011F000600590931E0380931D038BE391E00E9492
:1012000040040E9460058C0190931E0380931D038F
:1012100080910A03811151C161E00F3311050CF473
:1012200099C0093B11050CF048C162E30C37110568
:1012300009F490C00CF0B1C064E10735110509F460
:1012400089C00CF07EC06AE00F33110509F482C03A
:10125000C801805491098731910508F4B5C04897B9
:101260008831910508F4BBC049978830910508F48E
:10127000C1C009978230910508F4C7C00397823036
:10128000910508F4CDC003978530910508F4D3C0CB
:1012900006978730910508F4D9C0089789309105E1
:1012A00008F4DFC00A978930910508F4E5C00A9771
:1012B0008D30910508F4EBC00E97099708F4F2C041
:1012C0008985E82EF12C9A85692F70E06E197F09C7
:1012D000072E000C880B990B0E949B0D5B016C0183
:1012E000B80168197909072E000C880B990B0E9428
:1012F0009B0D9B01AC01C601B5010E94D60D5B019F
:101300006C01B30168197909072E000C880B990B41
:101310000E949B0D9B01AC01C601B5010E94160FF6
:101320005B016C01B701FF0C880B990B0E949B0DB0
:101330009B01AC01C601B5010E94AA0E0E94880F54
:1013400009C06EE10037110529F068E2093711057F
:1013500009F07ECF70E090E080E04AE00E944D040A
:101360008DE291E00E94400480910C0320910803DB
:101370003091090340911D0350911E038111BFC09C
:10138000255031092417350708F099C061E080E243
:101390000E94B1013BBC2ABCE1CE60E50D381105CD
:1013A000C9F24CF46CE30F371105A1F266E405387D
:1013B000110581F24DCF6AE50739110559F264E64E
:1013C000013A110539F244CFF4E1FA872AE029877E
:1013D000A7E56A2E712CBFE38B2E912C71CF8EE185
:1013E0008A8794E19987E0E76E2E712CF7E58F2EBE
:1013F000912C66CFE8E2EA87FEE1F98769E7662E7D
:10140000712C70E7872E912C5BCF22E32A8788E22C
:1014100089874CE7642E712C59E7852E912C50CF8B
:101420009CE39A87E2E3E9872FE7622E712C3CE781
:10143000832E912C45CFF6E4FA872CE3298785E8A3
:10144000682E712C9FE7892E912C3ACF80E58A87F0
:1014500096E49987ADE86A2E712CB5E88B2E912C15
:101460002FCFEAE5EA87F0E5F987E7E96E2E712CE0
:10147000FDE88F2E912C24CF24E62A878AE58987E0
:1014800061EA662E712C77E9872E912C19CF9EE6A2
:101490009A87E4E6E9874FEA642E712C51EA852E9B
:1014A000912C0ECFF8E7FA872EE6298729EB622EDA
:1014B000712C3FEA832E912C03CF6FEF4BCF60E06E
:1014C00080E20E94B10140911D0350911E032091C2
:1014D00008033091090380910603909107032417B4
:1014E000350730F402978115E4E09E07A0F004C0B0
:1014F0008115F4E09F0778F08FEF93E00CC08091A6
:101500000603909107032417350768F702978115A2
:1015100024E0920788F79BBD8ABD20CE80914503C9
:1015200090914603009709F464C069817A8161153E
:10153000710509F45CC040914703509148032D8127
:101540003E814217530708F452C00E9403128D8156
:101550009E8190934A03809349031E821D82CE018F
:1015600001960E94D1048091490390914A03892BEE
:1015700009F40CCE6FE371E0CE0101960E94D10513
:10158000CE0101960E94D904182FCE0101960E9427
:10159000D104112309F444C06091490370914A03B6
:1015A0007727CE0101960E94E20589819A8160E049
:1015B000009711F00E945D0D60931C02CE01019610
:1015C0000E94D10483E491E00E94400460911C02D7
:1015D00070E090E080E04AE00E944D048DE291E0EE
:1015E0000E94400480911C020E94F30027C00E94C8
:1015F000871089819A8190934603809345038B815C
:101600009C8190934803809347038D819E819093A2
:101610004A03809349031A8219821C821B829DCF40
:1016200089E491E00E94F604882379F08FE491E048
:101630000E94C304E092EA020E945A0264E670E04B
:1016400080E090E00E948C02A1CD87E591E00E94AD
:10165000F604882369F08FE491E00E94C304E092CD
:10166000EB028091FF0290E0906B0E943002E6CF87
:101670008DE591E00E94F604882339F084E691E03C
:101680000E94C3041092EA02D7CF8CE691E00E9438
:10169000F604882349F084E691E00E94C304109286
:1016A000EB028091F902DFCF83E791E00E94F6041C
:1016B000882379F088E791E00E94C3048091EA02D0
:1016C0008F5F8D301CF48093EA02B6CFF092EA026D
:1016D000B3CF8FE791E00E94F6048823B9F084E845
:1016E00091E00E94C3048091EB028F5F8D301CF467
:1016F0008093EB0202C0F092EB02E091EB020E2E1F
:10170000000CFF0BED52FD4F86A1ADCF8BE891E0B1
:101710000E94F604882351F080E991E00E94C304FE
:101720008091EA02815087FDADCFCDCF87E991E06E
:101730000E94F604882361F08CE991E00E94C304C2
:101740008091EB02815087FFD3CF1092EB02D5CF6F
:1017500083EA91E00E94F604882331F088EA91E060
:101760000E94C30482E340CF8FEA91E00E94F60416
:10177000882331F085EB91E00E94C30480E034CFF0
:101780008DEB91E00E94F604882349F081EC91E012
:101790000E94C30461E080E20E94B1014FCF87EC58
:1017A00091E00E94F604882331F08CEC91E00E94D5
:1017B000C30460E0F0CF83ED91E00E94F60488233B
:1017C00069F087ED91E00E94C30468E873E180E06E
:1017D00090E00E948C02F0E0E0E009958DED91E050
:1017E0000E94F6048823A1F181EE91E00E94C304D7
:1017F000E091CC02F091CD02EC53FD4F808190E05E
:101800000E941704FFEF29EF80E0F1502040804054
:10181000E1F700C000008091CC029091CD020196CA
:101820008430910580F49093CD028093CC02809116
:10183000D0029091D10201969093D1028093D00270
:101840000E947005FBCE1092CD021092CC02EFCF19
:1018500087EE91E00E94F604882371F18BEE91E00F
:101860000E94C304E091CE02F091CF02EC53FD4FF1
:10187000848190E00E9417049FEFE9EFF0E091501F
:10188000E040F040E1F700C000008091CE0290916E
:10189000CF0201968430910550F49093CF0280934B
:1018A000CE028091D0029091D1020197C5CF1092C3
:1018B000CF021092CE02F5CF81EF91E00E94F604A4
:1018C000882379F085EF91E00E94C3048091D002D3
:1018D0009091D1029A838983CE0101960E941F04C0
:1018E000ADCE8BEF91E00E94F604882339F08FEFA4
:1018F00091E00E94C3045A824982EECF65E072E013
:10190000CE0101960E94D105CE0101960E94D90414
:10191000182FCE0101960E94D104112309F45EC054
:101920006091490370914A037727CE0101960E9486
:10193000E20589819A810097D9F10E945D0D6B01C2
:1019400070931B0260931A02CE0101960E94D1048B
:1019500010E000E00C151D05A0F5E091CC02F0911F
:10196000CD02EC53FD4F808190E00E9417042FEFD1
:1019700089EF90E0215080409040E1F700C00000E6
:101980008091CC029091CD02019684309105A0F413
:101990009093CD028093CC028091D0029091D1029D
:1019A00001969093D1028093D0020F5F1F4FD2CF48
:1019B00060E070E0CB01C3CF1092CD021092CC0258
:1019C000EBCF0E94700589E092E00E944004809174
:1019D000D0029091D1020E94910430CE6FE072E06B
:1019E000CE0101960E94D105CE0101960E94D90434
:1019F000182FCE0101960E94D104112309F4C6CB01
:101A00006091490370914A037727CE0101960E94A5
:101A1000E20589819A810097D9F10E945D0D6B01E1
:101A200070931B0260931A02CE0101960E94D104AA
:101A300010E000E00C151D05A0F5E091CE02F0913C
:101A4000CF02EC53FD4F848190E00E941704EFEF2A
:101A5000F9EF20E0E150F0402040E1F700C0000045
:101A60008091CE029091CF02019684309105A0F42E
:101A70009093CF028093CE028091D0029091D102B8
:101A800001979093D1028093D0020F5F1F4FD2CF66
:101A900060E070E0CB01C3CF1092CF021092CE0273
:101AA000EBCF0E94700583E192E08FCF0E9400048B
:101AB00012CB85E493E00C94D1041F93FC01992789
:101AC0008827BC01E89411911032E9F3193010F025
:101AD0001E30C8F31B3251F01D3249F4689406C021
:101AE0000E94840D610F711D811D911D1191105374
:101AF0001A30B0F33EF490958095709561957F4FC4
:101B00008F4F9F4F1F910895592F482F372F262F02
:101B1000660F771F881F991F660F771F881F991FF1
:101B2000620F731F841F951F660F771F881F991FF1
:101B30000895E89409C097FB3EF4909580957095C0
:101B400061957F4F8F4F9F4F9923A9F0F92F96E909
:101B5000BB279395F695879577956795B795F1117E
:101B6000F8CFFAF4BB0F11F460FF1BC06F5F7F4F1B
:101B70008F4F9F4F16C0882311F096E911C077232D
:101B800021F09EE8872F762F05C0662371F096E836
:101B9000862F70E060E02AF09A95660F771F881F05
:101BA000DAF7880F9695879597F908950E94E90DC1
:101BB0000C945A0E0E944C0E38F00E94530E20F0E6
:101BC000952311F00C94430E0C94490E11240C949F
:101BD0008E0E0E946B0E70F3959FC1F3950F50E02F
:101BE000551F629FF001729FBB27F00DB11D639FCF
:101BF000AA27F00DB11DAA1F649F6627B00DA11D75
:101C0000661F829F2227B00DA11D621F739FB00D1A
:101C1000A11D621F839FA00D611D221F749F33278A
:101C2000A00D611D231F849F600D211D822F762F23
:101C30006A2F11249F5750409AF0F1F088234AF000
:101C4000EE0FFF1FBB1F661F771F881F915050406C
:101C5000A9F79E3F510580F00C94430E0C948E0E14
:101C60005F3FE4F3983ED4F3869577956795B795F3
:101C7000F795E7959F5FC1F7FE2B880F911D96950D
:101C8000879597F9089597F99F6780E870E060E07D
:101C900008959FEF80EC089500240A941616170605
:101CA00018060906089500240A941216130614064D
:101CB00005060895092E0394000C11F4882352F0B0
:101CC000BB0F40F4BF2B11F460FF04C06F5F7F4F68
:101CD0008F4F9F4F089557FD9058440F551F59F04F
:101CE0005F3F71F04795880F97FB991F61F09F3F09
:101CF00079F087950895121613061406551FF2CF32
:101D00004695F1DF08C0161617061806991FF1CF81
:101D100086957105610508940895E894BB276627A8
:101D20007727CB0197F90895E199FECF9FBB8EBB32
:101D3000E09A99278DB30895262FE199FECF9FBB96
:101D40008EBB2DBB0FB6F894E29AE19A0FBE0196B6
:101D500008955058BB27AA270E94C10E0C945A0E12
:101D60000E944C0E38F00E94530E20F039F49F3F31
:101D700019F426F40C94490E0EF4E095E7FB0C944C
:101D8000430EE92F0E946B0E58F3BA1762077307D0
:101D90008407950720F079F4A6F50C948D0E0EF4C7
:101DA000E0950B2EBA2FA02D0B01B90190010C016B
:101DB000CA01A0011124FF27591B99F0593F50F483
:101DC000503E68F11A16F040A22F232F342F4427DB
:101DD000585FF3CF469537952795A795F0405395D3
:101DE000C9F77EF41F16BA0B620B730B840BBAF0A3
:101DF0009150A1F0FF0FBB1F661F771F881FC2F70E
:101E00000EC0BA0F621F731F841F48F48795779521
:101E10006795B795F7959E3F08F0B0CF9395880FDB
:101E200008F09927EE0F9795879508950E942A0F3D
:101E30000C945A0E0E94530E58F00E944C0E40F023
:101E400029F45F3F29F00C94430E51110C948E0E2F
:101E50000C94490E0E946B0E68F39923B1F355233D
:101E600091F3951B550BBB27AA27621773078407AD
:101E700038F09F5F5F4F220F331F441FAA1FA9F343
:101E800035D00E2E3AF0E0E832D091505040E69531
:101E9000001CCAF72BD0FE2F29D0660F771F881F92
:101EA000BB1F261737074807AB07B0E809F0BB0B85
:101EB000802DBF01FF2793585F4F3AF09E3F510599
:101EC00078F00C94430E0C948E0E5F3FE4F3983E32
:101ED000D4F3869577956795B795F7959F5FC9F782
:101EE000880F911D9695879597F90895E1E0660F03
:101EF000771F881FBB1F621773078407BA0720F07C
:101F0000621B730B840BBA0BEE1F88F7E0950895E4
:101F10000E94730E88F09F5798F0B92F9927B751F8
:101F2000B0F0E1F0660F771F881F991F1AF0BA957D
:101F3000C9F714C0B13091F00E948D0EB1E0089540
:101F40000C948D0E672F782F8827B85F39F0B93F32
:101F5000CCF3869577956795B395D9F73EF4909530
:101F60008095709561957F4F8F4F9F4F0895A1E2A7
:101F70001A2EAA1BBB1BFD010DC0AA1FBB1FEE1F03
:101F8000FF1FA217B307E407F50720F0A21BB30B4E
:101F9000E40BF50B661F771F881F991F1A9469F7CA
:101FA00060957095809590959B01AC01BD01CF0126
:101FB0000895EE0FFF1F0024001C0BBE0790F69142
:101FC000E02D09942A193B094C095D096E097F0926
:101FD000800B910B08950F931F93CF93DF93823063
:101FE000910510F482E090E0E0914D03F0914E03F2
:101FF00030E020E0B0E0A0E0309799F42115310501
:1020000009F44AC0281B390B24303105D8F58A81E0
:102010009B816115710589F1FB0193838283FE0128
:1020200011C0408151810281138148175907E0F0A6
:102030004817590799F4109761F012960C9312976C
:1020400013961C933296CF01DF91CF911F910F9180
:10205000089500934D0310934E03F4CF21153105DD
:1020600051F04217530738F0A901DB019A01BD0175
:10207000DF01F801C1CFEF01F9CF90934E038093B8
:102080004D03CDCFFE01E20FF31F819391932250B8
:10209000310939832883D7CF20914B0330914C03EA
:1020A000232B41F4209102013091030130934C0322
:1020B00020934B032091000130910101211531053E
:1020C00041F42DB73EB74091040150910501241B06
:1020D000350BE0914B03F0914C03E217F307A0F4AA
:1020E0002E1B3F0B2817390778F0AC014E5F5F4F6E
:1020F0002417350748F04E0F5F1F50934C03409351
:102100004B03819391939FCFF0E0E0E09CCFCF937E
:10211000DF930097E9F0FC01329713821282A091BD
:102120004D03B0914E03ED0130E020E01097A1F493
:1021300020813181820F931F20914B0330914C03FA
:102140002817390709F061C0F0934C03E0934B0363
:10215000DF91CF910895EA01CE17DF07E8F54A81B4
:102160005B819E0141155105B1F7E901FB83EA83CB
:1021700049915991C40FD51FEC17FD0761F4808177
:1021800091810296840F951FE9019983888382814A
:1021900093819B838A83F0E0E0E012968D919C917D
:1021A00013970097B9F52D913C911197CD010296A7
:1021B000820F931F20914B0330914C03281739074E
:1021C00039F6309751F510924E0310924D03B093AB
:1021D0004C03A0934B03BCCFD383C2834081518176
:1021E000840F951FC817D90761F44E5F5F4F888130
:1021F0009981480F591F518340838A819B81938322
:1022000082832115310509F0B0CFF0934E03E0939E
:102210004D039ECFFD01DC01C0CF13821282D7CFC8
:102220004F925F926F927F928F929F92AF92BF92E6
:10223000CF92DF92EF92FF920F931F93CF93DF9392
:102240008C01009799F4CB01DF91CF911F910F91F1
:10225000FF90EF90DF90CF90BF90AF909F908F90C6
:102260007F906F905F904F900C94EB0FFC01E60F06
:10227000F71F9C0122503109E217F30708F4AEC0A2
:10228000D901CD91DC911197C617D70720F1C53040
:10229000D10578F0CE0104978617970750F0C61B3A
:1022A000D70B2297C193D1936D937C93CF010E945A
:1022B0008710C801DF91CF911F910F91FF90EF9090
:1022C000DF90CF90BF90AF909F908F907F906F9056
:1022D0005F904F9008955B01AC1ABD0A4C018C0EC3
:1022E0009D1EA0914D03B0914E03512C412CF12C19
:1022F000E12C109731F580914B0390914C03881598
:10230000990509F05CC04616570608F058C0809140
:10231000000190910101009741F48DB79EB7409163
:10232000040150910501841B950BE817F90708F08B
:1023300055C0F0934C03E0934B03F9017183608324
:10234000B8CF8D919C91119712966C90129713961D
:102350007C901397A815B90559F56C0142E0C40E9D
:10236000D11CCA14DB0420F1AC014A195B09DA0163
:102370001296159780F06282738251834083D9014F
:102380006D937C93E114F10471F0D7011396FC93E3
:10239000EE9312978ECF22968C0F9D1FF901918399
:1023A0008083F301EFCFF0934E03E0934D0381CF91
:1023B0004816590608F42C017D01D3019ACFCB01B0
:1023C0000E94EB0F7C01009749F0AE01B8010E941A
:1023D000F111C8010E94871087016BCF10E000E067
:1023E00068CFFB01DC0102C001900D9241505040CA
:1023F000D8F70895FB01DC018D910190801901103F
:10240000D9F3990B0895FB01DC0101900D92002096
:10241000E1F70895FB01DC014150504030F08D910F
:102420000190801919F40020B9F7881B990B0895C1
:1024300010E0C7EAD0E004C0FE010E94D90F219647
:0A244000C83AD107C9F7F894FFCF9E
:10244A0000004F038000000A141E28323C46505AEE
:10245A00646E780903060C0603090C000000009359
:10246A0003CB02F802E0035B0307034D030D0A00E6
:10247A005354524F4B004354443000435444005386
:10248A005444005354444F4B004C54314F4E004C6B
:10249A0054314F4E4F4B004C54324F4E004C543136
:1024AA004F4646004C544F46464F4B004C54324F11
:1024BA004646004C543155004C5431554F4B004C54
:1024CA00543255004C5432554F4B004C5431440051
:1024DA004C5431444F4B004C543244004C54324417
:1024EA004F4B0042424F4E0042424F4E4F4B00422A
:1024FA00424F46460042424F46464F4B00564F4EC9
:10250A0000564F4E4F4B00564F464600564F4646D2
:10251A004F4B00525354005253544F4B004D4653A5
:10252A00004D46534F4B004D4253004D42534F4BC3
:10253A00004D535A004D535A4F4B004D525A004DBD
:10254A00525A4F4B004D4D46004D4D464F4B004D94
:0A255A004D42004D4D424F4B000072
:00000001FF
